:020000041000EA
:1000000000B5324B212058609868022188439860DF
:10001000D860186158612E4B002199600221596106
:100020000121F02299502B49196001219960352056
:1000300000F044F80222904214D00621196600F024
:1000400034F8196E01211966002018661A6600F04E
:100050002CF8196E196E196E052000F02FF8012189
:100060000842F9D1002199601B49196000215960AB
:100070001A491B48016001219960EB211966A021F2
:10008000196600F012F800219960164914480160C1
:100090000121996001BC002800D000471248134993
:1000A000086003C880F30888084703B5996A0420EC
:1000B0000142FBD001200142F8D103BD02B5186610
:1000C0001866FFF7F2FF186E186E02BD00000240BE
:1000D000000000180000070000035F00212200005C
:1000E000F4000018222000A00001001008ED00E03C
:1000F00000000000000000000000000074B24E7A12
:1001000000200420F7010010C3010010C5010010F9
:10011000C1010010C1010010C1010010C101001097
:10012000C1010010C1010010C1010010C701001081
:10013000C1010010C1010010C9010010CB01001065
:10014000CD010010CD010010CD010010CD01001037
:10015000CD010010CD010010CD010010CD01001027
:10016000CD010010CD010010CD010010CD01001017
:10017000CD010010CD010010CD010010CD01001007
:10018000CD010010CD010010CD010010CD010010F7
:10019000CD010010CD010010CD010010CD010010E7
:1001A000CD010010CD010010CD010010CD010010D7
:1001B000CD010010CD010010CD010010CD010010C7
:1001C00000BE00BE00BE00BE00BE00BEEFF3058054
:1001D000103800BEF2EB88719C700010C4700010E3
:1001E0003402001090A31AE700201F49086006C8D7
:1001F00081F3088810471D48006800282FD10DA4FE
:100200000ECC002902D000F012F8F9E71849194A7B
:10021000002000E001C19142FCD1174988471749ED
:1002200088471749884700BEFDE701C901C29A42C5
:10023000FBD37047C4700010C0000020C002002033
:10024000C47200100000042000000420C4720010DA
:10025000001004200010042000000000704709482E
:1002600004F046FA0047000008ED00E0000000D06E
:10027000D0020020F85F0220B52F0010A90A00105C
:10028000A93000105756000006005250ABB360531F
:10029000D86F001006005250861C0302E86F001051
:1002A000060052505422A29DF06F001005005250DB
:1002B000DE65F468C4720010F8B5C04610B5064C8F
:1002C0002378002B07D1054B002B02D0044800E017
:1002D00000BF0123237010BDD005002000000000E6
:1002E00080670010044B10B5002B03D0034904486D
:1002F00000E000BF10BDC04600000000D405002093
:1003000080670010F0B54E46DE4657464546E0B5DC
:1003100002680600012399B0002A00D11DE1CC4AF1
:100320000292029A3260002B07D1012019B0F0BC72
:10033000BB46B246A946A046F0BDC64AC64B9B6A1C
:100340000692126804929342EFD3C44FA020002279
:10035000BB5EC34A400093460021525E00210091DB
:10036000F03100F029FDC821FA20490001F098F988
:100370000020002101F0A8F90BAB1800984601F00D
:10038000ADF9A020B44BB74AB74C99469B6A924648
:100390001360F0210023E25E4000072300F0E6FD39
:1003A000206804F0E7FCB14B04900591186805F053
:1003B00071FCAF4AAF4B04F06CFC0022AE4B04F072
:1003C0004AFC04000D0004F055FD02000B000498E7
:1003D000059904F05EFCA94B002204F033FC04F004
:1003E000E1FC5A46290010600790200004F02CFD23
:1003F00002000B000498059904F04BFC0022A04B6E
:1004000004F020FC04F0CEFC6A4638601C21525EE9
:1004100003B20721A02000914000E93100F0CCFC9C
:100420004B469A6A53461B68C8219B1A954AFA2084
:100430009446954A63444900136001F031F9002164
:10044000072001F041F9894BD024186805F022FCFF
:100450008E4A0090019140468D4904F005F94046CE
:1004600001F03CF900238B4D00222B608A4B7F2743
:100470009B468A4B24069A46894B9946F023DB001B
:10048000984604E02B685A1C2A60032A45DC5B4628
:1004900092009B5842462169DB014B401340E361C7
:1004A0000120002101F0FCFE52466368DB093B405D
:1004B00013604A4612681A42E4D000222A60794A40
:1004C00011688B426CD051688B4200D19BE09168DF
:1004D0008B427CD0D1688B4200D189E011698B427C
:1004E00000D199E051698B4200D1A0E091698B4223
:1004F00000D1DFE0D1698B4200D1E8E0116A8B4284
:1005000000D1F1E0516A8B4200D1FAE0916A8B424E
:1005100000D103E1D26A93423AD00123039A5B42AD
:100520002B60002A03D0012A2AD0022303934F4BC9
:10053000186805F0AFFB089A0090019103995A489A
:1005400005F020FE2B680993434B9A6A4E4B1B68BB
:100550009B18069A13600023E3E6012001F0AAF835
:100560000023089303933E4B3C4F9B460BAB9846AE
:10057000384B0693364B029303E7012B0DD10B2327
:100580000393039B0B3B1A00531E9A410392CEE741
:100590000B232B60039B002BEFD100230393C6E7B3
:1005A000039B002BF9D0012BBFD100230393099BA0
:1005B000039A9342E5D008998C468B006344944695
:1005C0005B009C446346089301230393AFE7022337
:1005D0002B60039B002BA8D0039B012B02D102238D
:1005E0000393E4E70122314B1A60022303939EE751
:1005F00003232B60039B002BCFD0039B012B94D1B3
:1006000003230393D3E701232B60039B002B00D02C
:1006100095E0012303938AE704232B60039B002BBF
:10062000BBD0039B012B80D104230393BFE7052399
:100630002B60039B002BB0D0039B012B02D1052321
:100640000393B4E701221A4B1A60022303936EE767
:1006500022030010DC07002000400540A006002017
:100660009C06002004060020CC0100207806002013
:10067000182D4454FB21094000806640000074405E
:1006800000006E4035820000C8070020806700101F
:100690009467001090060020D001002094060020EE
:1006A000980100209C0100209C670010E8070020B2
:1006B0007C06002006232B60039B002B00D16CE7F7
:1006C000039B012B00D030E7062303936FE707233A
:1006D0002B60039B002B00D15FE7039B012B00D015
:1006E00023E70723039362E708232B60039B002B78
:1006F00000D152E7039B012B00D016E70823039398
:1007000055E709232B60039B002B00D145E7039B92
:10071000012B00D009E70923039348E70A232B6044
:10072000039B002B00D138E7039B012B00D0FCE694
:10073000054B089A1A60054B039A1A60F7E6039B6B
:10074000012B00D133E7F0E6E0010020B8070020DC
:10075000F0B5DE4657464E464546E0B5036883B0E1
:100760000190002B00D0D5E06B4B9B461B68012B02
:1007700000D172E0694B6A4A98461B689146012B8A
:100780000DD01268012A0AD000230320019A1360B9
:1007900003B0F0BCBB46B246A946A046F0BD10224D
:1007A0009246604C604A0427934608265F4DA24457
:1007B000012B27D04B461B68012B4AD05B461B6898
:1007C00001221A4224D1D022120697619A0724D41A
:1007D000D02212069661D022102112061F4224D187
:1007E00091611E4224D1D02320221B0602209A614F
:1007F000043401F067FD0435A24524D043461B684C
:10080000012BD7D15A462368136001221A42DAD04D
:10081000D022120657619A07DAD5D0221206566105
:10082000D022102112061F42DAD051611E42DAD0C6
:10083000D02320221B0602205A61043401F042FD1D
:100840000435A245DAD10023424613604A461360BC
:100850009AE75A462B681360B2E7354DC8202968DD
:1008600003F078FF0090002851DD00239946314BBA
:10087000D0249846240680231B02636143461868EF
:1008800005F008FA02000B002B4805F07BFC2B68F2
:1008900018009A4604F06EFA284A294B04F0F9F938
:1008A0004346060018680F0005F0F4F90B0002003B
:1008B0003900300004F0C6F904F0B0FA434680274E
:1008C000186053460026FF01002B0FDDFA2000219F
:1008D000C000676101F0E4FCFA200021A761C000BC
:1008E00001F0DEFC2B680136B342EFDCFA20400059
:1008F00001F0E8FC01239C46009BE1444B45BAD142
:1009000000235A46136000234246136032E7094B26
:100910009846F5E79F46C046B8070020E807002044
:100920007C060020AC670010BC070020BC670010EC
:10093000E001002078060020A8670010CDCCCCCCC8
:10094000CCCCFC3FF0B5C646154B00B51B68002B60
:1009500025D1144B1B68002B1ED100229046424625
:10096000114F124D3B68124E2A60002B13DD0022FE
:10097000340053009B189B00F31820009B68984795
:100980002B680C345A1C3B682A609A42F1DB4246C1
:100990002A60002BEBDCFEE780BCB846F0BD9F462A
:1009A000B4060020BC060020C006002088060020F7
:1009B000C8060020F0B5C646154B00B51B68002BD5
:1009C00025D1144B1B68002B1ED1002290464246B5
:1009D000114F124D3B68124E2A60002B13DD00228E
:1009E000340053009B189B00F31820009B68984725
:1009F0002B680C345A1C3B682A609A42F1DB424651
:100A00002A60002BEBDCFEE780BCB846F0BD9F46B9
:100A1000B8060020BC060020C40600208C0600207A
:100A200040070020D0231B061B6870B5012B16D091
:100A300016490B68092B05DD0022154B1A60FFF7DC
:100A400081FF70BD5A001348D2189200124D8418CD
:100A50006360A5600024013384500B60ECE70F490C
:100A60000B68092B0BDC5A000D48D21892000A4D76
:100A700084186360A5600024013384500B60002259
:100A8000084B1A60FFF796FFDBE7C046C006002060
:100A9000B4060020C806002005030010C40600208C
:100AA00040070020B8060020F0B5C64600B505F0A6
:100AB00075FB0E2000F0ACFE0F2000F0A9FED02444
:100AC00080232406DB01636280231B026362102300
:100AD000984601272E4DA84440CD300000F098FEE6
:100AE0003B00B3406362A3614545F5D1FE20800120
:100AF00000F0ACFEF022D2006262236900211340B4
:100B0000E36101220B2000F06BFE012200210C208A
:100B100000F066FE012200210D2000F061FE00F0D1
:100B200049F805F05FFC1B4805F0B0FC2368012B79
:100B300018D0194A1368092B08DD0022174B1A60D8
:100B4000FFF700FF002080BCB846F0BD0C215943E0
:100B50001348144D44186360A560002401330C5001
:100B60001360EAE7104A1368092B0ADC0C21594389
:100B70000E480C4D44186360A560002401330C50EE
:100B8000136000220A4B1A60FFF714FFDAE7C04631
:100B9000CC670010250A0010C0060020B406002013
:100BA000C806002051070010C4060020400700209E
:100BB000B8060020F0B5D6464F464646C0B56E4949
:100BC0008AB06E4805F088FC6D4906006B4805F058
:100BD00083FC6C490500694805F07EFC00238022F7
:100BE00099460593F82352025B0202920393C023B5
:100BF00004001B03102202A906A89846049305F0DE
:100C0000BBF83100731C08310A03DB01134306A94A
:100C1000102202A8079305F0AFF85B4B012705935C
:100C2000A0230621DB0210209A46029300F0C0FDAB
:100C30000123102200215148009705F0B1FC320039
:100C400000214E4802AB05F003FD29006B1C0D315D
:100C50000A03DB0113434D4A062113408022D205CB
:100C60001343079343460893494B11200993534676
:100C7000069300F09DFD0123112201213F480097BA
:100C800005F08EFC2A0001213C4806AB05F0E0FC93
:100C90004B4680220593F82352025B020292039393
:100CA0004346102202A906A8049305F065F8220025
:100CB000A31C08321203DB01134306A9102202A869
:100CC000079305F059F8334B06211220059300F0E5
:100CD0006FFD0621132000F06BFD0621142000F0AB
:100CE00067FD0323122202212448009705F058FCD7
:100CF0002200022102AB214805F0AAFCA023264ACB
:100D0000DB051A60254A26495A60962292029A60AB
:100D1000244A1A61244A116080215360234B976052
:100D20001361164A490253680B42FCD18021204BC3
:100D300089021361114A53680B42FCD1E0238021E0
:100D4000FF3353610D4AC90253680B42FCD1402363
:100D5000FF33936180239B011A43164B01211360DB
:100D6000A0228623D205DB00D1500AB0E0BCBA46EF
:100D7000B146A846F0BDC046D86C00100000205017
:100D8000106D0010F46C001000020004FFFFFF9FC4
:100D9000204600445202300CEC070020180020507E
:100DA000E4010020110801004000005009801F00EC
:100DB0008F02000007070000F0B557464E46454633
:100DC000DE46E0B55F1A85B0FE170EAC2478BF1979
:100DD0007740161A0194F41736196640B0461D0084
:100DE0008A46914684463E00474506DD1500824608
:100DF0001A00080046464B46614690420ADD5446BA
:100E0000661BF417361966400C0019002300040015
:100E100010002200151AACB22DB2A246EC0F6419D4
:100E200001256410AC46994201DB4D4B9C46019B69
:100E3000B6B2DB005BB20293474544DCF0235B00B3
:100E40009B46A0339946012398466346454F03933A
:100E5000009717E0009F5B10FD5C0727BD43019FD3
:100E60003D43009FFD54A31B9DB21CB21B0405D53E
:100E7000039B55449C46614409B22CB2013000B238
:100E8000824265DB0B1C594501DBE023FF331BB2BB
:100E9000DD43ED172B409D00EB18C543ED170540D2
:100EA0002DB2DB014D4500DB2F4D5B1945461D4240
:100EB000D0D0009F5B10FD5C3827BD43029F3D43AF
:100EC000009FFD54CFE7F0235B009B46A03399467B
:100ED000012398466346234F0393009717E0009F32
:100EE0005B10FD5C3827BD43029F3D43009FFD54CE
:100EF000A31B9DB21CB21B0405D5039B55449C4605
:100F0000614409B22CB2013000B2904220DC031CD3
:100F1000584501DBE023FF331BB2DD43ED172B40C7
:100F20009D00EB18CD43ED170D402DB2DB014D4573
:100F300000DB0D4D5B1945461D42D0D1009F5B1073
:100F4000FD5C0727BD43019F3D43009FFD54CFE754
:100F500005B0F0BCBB46B246A946A046F0BDC046AF
:100F6000FFFF0000EC0700207F020000F0B54E46B6
:100F7000DE46574645460124E0B587B0039292B25B
:100F8000A41A24B20494D403A41A640024B2C6435D
:100F900005948CB2A446A024F6178946A400064006
:100FA000A64200DBDB4E6446F02715192C1C2DB23F
:100FB0007F00BD4202DBE021FF310C1C25B2EC4377
:100FC000E4172540AC006419E401A4196510D24C63
:100FD000675DF10700D4C7E138218F43D9000F4383
:100FE00067556546F021AF1A3D1C3FB249008F425C
:100FF00002DBE021FF310D1C2FB2FD43ED172F4026
:10100000BD00ED19ED01AD196D10F10700D4A5E19A
:101010003827665DBE43DF003E436655F02587B244
:101020006D004846A94502DBE021FF31081C01B2F2
:10103000C843D61935B2ED43C017014088004018A7
:10104000E917A025314009B2C001AD00A94200DB7B
:10105000B0490D186D10C90700D479E13826615DDB
:10106000B143DE0031436155BD1A29B2C943CA17E5
:10107000A0212A4012B289008A4200DBA54A10183A
:101080004010D20700D45DE13821225C8A43D900A8
:101090000A432254039A002A00DC14E1DA0052B217
:1010A000904600220292E132FF32914662460125CB
:1010B0009C4601970092B9E038215B109A46E35CA8
:1010C0008B4341460B439B4653465946E154019B93
:1010D0001B1A9B461BB2DB43DB179A465B46514605
:1010E0000B401BB29A46A0239B009A4501DB894B1B
:1010F0009A46390051440D4200D1F3E03827491097
:10110000635CBB4347463B436354009B9B1B191CDA
:101110001BB24B4502DBE023FF33191C09B2CB4362
:10112000DB1719408B009B465944C9018A181542A8
:1011300000D1FBE038275210A35CBB4347463B433A
:10114000A35451440D4200D1E8E038234910625CB9
:101150009A4343461A436254009B19180A1C09B269
:10116000494502DBE023FF331A1C12B2D143019B35
:10117000C9170A409B19910089181AB2D243D21795
:101180001A40A02312B2C9019B009A4200DB614AB7
:101190008B181D4200D1B5E038275B109A46E35CFE
:1011A000BB4347463B439B4653465F46E754019B40
:1011B0009B1B1EB2F643F6171E40A02336B29B00BF
:1011C0009E4200DB534E71180D4200D192E0382749
:1011D0004910635CBB4347463B436354009B181A6A
:1011E000011C00B2484502DBE023FF33191C09B2A1
:1011F000C843C017014088004118C9018A18154228
:1012000068D038235210A05C984343461843A0543A
:101210008E1935424CD038237610A25D9A4343464E
:101220001A43A255039B029A93424CDD049B002B68
:1012300000DA83E0039A013A13B296B2059A039357
:10124000023213B20593049B9A46524492B2029919
:10125000013188B20BB2410001315218029313B22E
:101260000493009B99190A1C09B2494502DBE0234B
:10127000FF331A1C12B2D143019BC9170A401B1835
:10128000910089181AB2D243D2171A40A02312B281
:10129000CF019B009A4200DB1E4ABB181D4200D0C2
:1012A0000AE707215B109A46E35C8B43614609E736
:1012B00007237610A25D9A4363461A43A255039B07
:1012C000029A9342B2DC07B0F0BCBB46B246A946D4
:1012D000A046F0BD07235210A05C98436346184314
:1012E000A05495E707274910635CBB4367463B431F
:1012F00063540AE707274910635CBB4367463B43D7
:1013000063546BE707275B109A46E35CBB43674671
:1013100048E7C0467F020000EC0700200723491081
:10132000625C9A4363461A43625415E707275210DA
:10133000A35CBB4367463B43A35402E79AB26B46A8
:101340009E8984E70721225C8A431A432254A1E63E
:101350000726615DB1431943615585E60727665D40
:10136000BE431E43665559E607218F431F43675509
:1013700037E6C046F0B54E464546DE465746E0B530
:1013800095B098461EAB1E781FAB1C78A02309961B
:1013900006949B00984200DBB7E0A03B994200DB3B
:1013A000B3E0A446630063445B001B18002B00DC21
:1013B000ABE0E3005B18002B00DCA6E093009A187A
:1013C000F3005BB210934346DB005DB2A3B2079318
:1013D00083B211930D9300230B938BB21293AD4BF9
:1013E000AA46D318139307239C46313399460B9B87
:1013F000052B00D14AE1139AD35C02936B46342249
:101400009B5E069A9B465A440192129A0A931300D5
:1014100008339BB208930B9B05929B460392119A4B
:101420005A4413B2DB43DB1713400C93029BDB07D8
:1014300000D471E0069B012B00D1CDE06B460A99E8
:101440000C229B5E019A04938A4244DD9B46069DD2
:101450005D44AB423FDAF02600918F497600009B55
:1014600018B2C043C0171840A02300B29B00984296
:1014700000DB8A48D346049A09E04C465B10CF5CF7
:101480000132A7435C462743CF54AA421CD013B273
:10149000171CB34202DBE023FF331F1C3FB2FB43A8
:1014A0000124DB171F40BB00DB19DB011B181C42AA
:1014B000E3D15B10CC5C013227006446A74344466D
:1014C0002743CF54AA42E2D1009B019A0133DA4666
:1014D00000939A42C3D10799029B8B465B08029303
:1014E000059B01339AB2039B05925B449BB2039325
:1014F000089B93429AD10D9B0B9A5B4401329BB29D
:101500000B920D93062A00D071E715B0F0BCBB46D4
:10151000B246A946A046F0BD099B4345DBD0069BD9
:10152000012B7DD06B460A990C229B5E019A049395
:101530008A42D0DD9B46069D5D44AB42CBDA5346E2
:101540000E9343460F93109BF0269846099B0091FB
:101550009A4651497600009B18B2C043C017184004
:10156000A02300B29B00984200DB4C48C346049A7B
:1015700009E04C465B10CF5C0132A7435C46274331
:10158000CF54AA421CD013B2171CB34202DBE02393
:10159000FF331F1C3FB2FB430124DB171F40BB007E
:1015A000DB19DB011B181C42E3D15B10CC5C013260
:1015B00027006446A74354462743CF54AA42E2D1AA
:1015C000009B019A0133D84600939A42C3D10E9BE7
:1015D0009A460F9B98467EE7F022059952000B1C15
:1015E00009B2914201DBE023FF331BB2DA43D21789
:1015F00013409A00D3186A46A0213020125EDB0106
:1016000089008A4200DB254A9B18DA072CD5484618
:1016100021495B10CA5C824350460243CA545AE7D0
:10162000F022059952000B1C09B2914201DBE02324
:10163000FF331BB2DA43D21713409A00D3186A461D
:10164000A0213020125EDB0189008A4200DB134AB0
:101650009B18DA0711D548460F495B10CA5C8243D4
:1016600010980243CA5436E760460B495B10CA5CC7
:10167000824340460243CA542DE7604606495B1048
:10168000CA5C824309980243CA5424E700230293A8
:10169000B4E6C046DC670010EC0700207F020000C3
:1016A000024B1880024B19807047C046EC5F022045
:1016B000EE5F0220031C002800D10123014ADBB2A7
:1016C00013807047F05F0220024B1870024B1970B4
:1016D0007047C046F55F0220F45F0220F0B5CE46A9
:1016E000474680B50278040083B0002A23D02A4BF5
:1016F0002A4E99462A4D0EE00D2A09D0092A1FD1FB
:101700009F21274A890013888B4201D2043313801A
:101710002278002A0FD001340A2AEDD1214B1F4A2A
:101720001B881188DB005B18138000221C4B1A8079
:101730002278002AEFD103B0C0BCB946B046F0BD54
:101740004B460020315E0027E85F164F1B78B846F5
:101750003F780197144F3F780097FFF70BFE434601
:101760001A8829885300D3185B005B180F499BB275
:1017700009782B800029CBD0A020800084469100DE
:10178000511A490061448B42C2DD3388D200D2181D
:10179000002332802B80BBE7F55F0220EE5F022042
:1017A000EC5F0220F05F0220F45F0220F75F02206E
:1017B000094A830094464022634410B51C68C00067
:1017C0006240C02414408022520113431C60034B2A
:1017D0009C466044416010BD04C00140004001408F
:1017E0000A4B80009C4604236044002901D00C234E
:1017F0000821002A00D10B00026853400C221A4035
:1018000080235B01184302607047C04604C001405A
:101810000123D0228340120693629361094A830018
:101820009446402263441968C0004A40C0211140D8
:101830008022520113431960034B9C4605236044E8
:101840004360704704C00140004001404021F0B5B2
:10185000D6464F46464688468031D0258C46C0B590
:10186000BB398027002301248A46104A2D067F01B8
:10187000044211D0210099404646A962A96111682D
:101880007140664631403E0016433160084ED90033
:10189000B146564649440E600133400804321E2BBF
:1018A000E6D1E0BCBA46B146A846F0BD04C001404E
:1018B00004400140024B18688007C00F7047C046C3
:1018C00000C00640EFF3108072B6034A1368002B85
:1018D000FCD0BFF35F8F70472C0100D0BFF35F8F48
:1018E0000022024B1A6080F3108870472C0100D050
:1018F00070B5EFF3108C72B60D4D2B68002BFCD039
:10190000BFF35F8F0724CB08C618C05C01230C40CF
:10191000A3401C000440034207D103433370BFF3CC
:101920005F8F2C608CF3108870BD100001F0C0FB3D
:101930002C0100D00021044B044ABFF35F8F02C387
:101940009342FAD17047C046000100D0800100D018
:10195000044A1078431CDBB2172B00D910231370F4
:101960007047C046E801002001238340002904D0CD
:10197000034A1360034A13607047034A1360FBE78E
:1019800080E200E000E100E080E100E0012282402E
:10199000034B1B6813405A1E9341D8B27047C04690
:1019A00000E100E0024B10309B688000C058704797
:1019B00000ED00E070B50D00EFF3108672B60F4A2F
:1019C0001368002BFCD0BFF35F8F0D4B10309B686A
:1019D00084001B590B4A934203D09D4201D001F071
:1019E0007FFB074B9B681D51BFF35F8FBFF35F8F7A
:1019F0000022024B1A6086F3108870BD240100D0CB
:101A000000ED00E0CD010010F0B5DE4657464E4631
:101A10004546E0B50C0083B0EFF3108972B6584A22
:101A20001368002BFCD0BFF35F8F564B9A680300FE
:101A300010339F00D559544A9046954232D0A54262
:101A400043D0524EAA1B2F2A2CD801228240924604
:101A500051464F4A12681140019151464D4A11605A
:101A6000BFF35F8FEFF305829346002A33D1012342
:101A70002A009A4393689C4208D177E04B005B1898
:101A80009B00F3189968A1422AD01A0006215156EA
:101A90000029F3DA019B002B19D052463E4B1A6005
:101AA0003B4B1A60374B9B68DD51BFF35F8FBFF331
:101AB0005F8F0022324B1A6089F3108803B0F0BCAC
:101AC000BB46B246A946A046F0BD1500EAE752461D
:101AD000304B1A60E6E79342C9D001F001FBC6E73C
:101AE00006215956002921DB4A005018800034187D
:101AF0008046A0689860E079D871062020569871D9
:101B0000002824DBA488F01A640524154444001935
:101B1000E0240005400D24022043988052181F4BFA
:101B20009200B6181A781970B271B3E759460029B5
:101B30000FD1FF3191711A49918018490A789A7131
:101B4000184A9B1B5B415A43120D0A70A2E71648C4
:101B5000E3E7164A1649D21A083A5002400D0143EB
:101B60009980144952080A43DA8093E706215156B6
:101B700013000029B8DA5A46002AEAD14546DCE7C4
:101B8000240100D000ED00E0CD010010EC010020A8
:101B900000E100E080E100E080E200E0F35F02208D
:101BA00001BDFFFFAAAA000001BD0000260200201F
:101BB00000F0FFFF00F8FFFF70B5EFF3058101248F
:101BC0000443EFF3108C72B6214A1368002BFCD04B
:101BD000BFF35F8F1F4B05001F4AED1A6D416A432B
:101BE000120D1E4D8900AE6852B27658A6421CD026
:101BF0000621595691421CD012215956914222D0A9
:101C00001E215956914220D02A215956032491422F
:101C100010D0134B19781A708171BFF35F8F0022B7
:101C20000B4B1A608CF3108870BDAB680D4C5C5088
:101C3000EFE700246100091989005B18FF21997101
:101C400009499980E5E70124F4E70224F2E7C04658
:101C5000240100D0EC010020AAAA000000ED00E061
:101C6000F35F0220CD01001001BDFFFF054B064AC6
:101C70001360064A136053609360D360136153612D
:101C8000936170478080808000E400E004E400E01D
:101C9000024B9C466144890001607047400000345B
:101CA00010B50400FFF754FE01002000FFF7F0FF1D
:101CB000FF232371BFF35F8F10BDC04610B5040032
:101CC000FFF746FE01002000FFF7E2FFFF23A3809D
:101CD000BFF35F8F10BDC04683680B4810B58446C4
:101CE00061446244090112019A18591854684B68FA
:101CF00001209C4201D802D00020C0B210BD126861
:101D00000B689A42F9D8F7E7FFFFFF0F0A4B1968F3
:101D1000EFF3108072B60A68002AFCD0BFF35F8F21
:101D20001B68BFF35F8F00221A6080F3108840BFEA
:101D3000002000217047C046C4070020F8B5574670
:101D40004E464546DE46E0B599460CAB1C780DABD9
:101D50001B78060090469A460768002C11D1BC7B80
:101D6000002C42D065003B682D19033D59194B7872
:101D7000BB73002B00D1FB7300238B704B700B7077
:101D800004E065003B682D19033D5919B2682A4BE0
:101D900094464246E3181B0163441A604A465A605F
:101DA0000A9A9A600B9ADA6000238B704B700B7062
:101DB0007B7B9B46002B2BD022005946B8687B6862
:101DC00098473A68002816D05B4658465B005B444B
:101DD0005519033BA870D118D35C002B00D06B7051
:101DE0005B460C707B73A34513D0F0BCBB46B24678
:101DF000A946A046F8BD5B465B005B44033BD31895
:101E00009C705119525D002A00D05A705B460B70CD
:101E10007C7342464B46307D00F0CCFB051E06D05D
:101E20005346002B03D12100306800F0E7FD0E9BE4
:101E3000002BDAD01D70D8E7FFFFFF0FF0B5DE46AC
:101E400057464E4645460023E0B58BB00893674B96
:101E50008200D45800239B46099000F021FB626861
:101E600006000F00EFF3108572B61368002BFCD04C
:101E7000BFF35F8F23689C465B7B9946002B00D1A4
:101E800069E0A2685A4B90464B441B019844434674
:101E90001A685B6810001900801BB941002900DC3A
:101EA00063E0099800F086FB002300229846002397
:101EB0000692079300239A466368BFF35F8F5A46E2
:101EC0001A6085F310885346002B08D10028C4D12E
:101ED0000BB0F0BCBB46B246A946A046F0BD089B7D
:101EE000414618024B461843D047626806000F006F
:101EF000EFF3108572B61368002BFCD0BFF35F8F31
:101F0000002F50DB33003B4302D02369002B61D10B
:101F10002368D97B002907D04A00521819688C46DB
:101F200049466244033A51709A7B002A01D14A46DD
:101F30009A734A46DA734B46E168013BCA5C013248
:101F4000CA545B4623616368BFF35F8F5A461A60C9
:101F500085F3108881E7002300229846002306922B
:101F60000793002300209A46A6E7002902D1002803
:101F700000D096E70021604600F0BEFC43461A6898
:101F80005B680692079343469B689A464346DB6824
:101F90009846E3684B44013B1B7808931B020343BC
:101FA0002361002088E72369002BB1D0069A079BA4
:101FB000921BBB41002B15DB594604910121039173
:101FC0004946029141460191514620000091FFF798
:101FD000B5FEB6E700F064FA32003B0012184B4140
:101FE000002BE9DA0122034B5242E5E7A406002068
:101FF000FFFFFF0FFFFFFF7F10B5144C6368002B3E
:1020000004D00A211248FFF743FE10BD2300114AF5
:102010001021206800F08AFB032000F035FA03202D
:1020200000F032FB03200C4900F07EFAFFF790FC31
:102030000A4B9C4603232375D0231B061B68604470
:102040006375074B80006060DC60DAE734020020D3
:10205000C4070020D91C00103D1E001040000034B1
:10206000A4060020F0B54E464546DE465746E0B58C
:1020700085B0019310AB1B780600039300239946AB
:10208000984600927268EFF3108B72B61368002BBB
:10209000FCD0BFF35F8F3568AC7B002C3DD0670070
:1020A0002B683F19033FDB195A78AA73002A00D125
:1020B000EA73B168474A8C4600980199A218120148
:1020C0006244106051600E9991600F99D160424650
:1020D0009A705A701A706B7B9A46002B67D0220058
:1020E0001900A8686B6898472A68002852D05346A0
:1020F00050465B005344D719033BB870D118D35CEA
:10210000002B00D07B7053460C706B7354454FD03E
:10211000F3681B19013B187800E000207368BFF3D7
:102120005F8F42461A608BF31088002C4FD04B46CD
:10213000002B08D10002204305B0F0BCBB46B246DC
:10214000A946A046F0BD039B002B3ED00E9B00206D
:102150000F999847030004000D000B4335D0002968
:102160000ADA009A019B121BAB4100920193002BEB
:102170000ADB039B994685E700F092F924184D414C
:1021800000940195002DF4DA0123134C5B42009377
:102190000194EEE753465B005344033BD3189C7015
:1021A000D119D25D002A00D05A7053460B706C735F
:1021B000307D009A019B00F0FDF981460028A7D0F0
:1021C0002100306800F01AFCA2E70020B4E70120EB
:1021D0004042B1E7FFFFFF0FFFFFFF7FF0B50400B4
:1021E0000D0006267642F717C64636196F4100B530
:1021F00084B08F4214D811D000F052F932003B0065
:10220000121A8B41002B15DC002B3ED02000290038
:1022100000F07AF904B080BCB846F0BD8642EBD934
:102220000026002700F03CF932003B00121A8B41D7
:10223000002BE9DD002302930193154B320000933C
:1022400014483B00FFF70EFF0028DFDB0023984611
:10225000BC46114A114F7B6A9C4504D8B96A8E422C
:10226000D4D99C45D2D11168EFF3108072B60B68B7
:10227000002BFCD0BFF35F8F1368BFF35F8F414625
:10228000196080F3108820BFE5E7002ABED0D1E7AF
:102290000D1D001034020020C4070020004005403E
:1022A00070B504000D0000F0FBF800196941002929
:1022B00002DBFFF793FF70BD012001494042F8E7C0
:1022C000FFFFFF7F70B5060000F0EAF8FA22040075
:1022D0000D00002330000021920003F0C1FC001922
:1022E0006941002902DBFFF779FF70BD0120014938
:1022F0004042F8E7FFFFFF7FF0B5EFF30583CE46DE
:10230000474680B505000C0085B0002B12D02C4A42
:102310000020536A9C4203D8926A0130AA4204D337
:1023200005B0C0BCB946B046F0BDE01A421E9041AF
:10233000C0B2F5E7234E02930193234B02000093B2
:1023400030000B00FFF78EFE031EE0DD20BF71683A
:10235000EFF3108772B60A68002AFCD0BFF35F8FD4
:10236000DAB294463068427B62451DD0FF221A40A3
:1023700051008946016891448846494641440339E1
:102380008978002913D0F1681B0A88464244013A33
:102390001278DBB29A420FD07368BFF35F8F0022CE
:1023A0001A6087F31088B2E7FF221A40EBE7326920
:1023B0009342F1D13161EFE7614600F01FFBEBE79B
:1023C00000400540340200200D1D0010F0B5EFF371
:1023D0000582D6464F4646461000C0B51038EFF38A
:1023E000108872B6214C2368002BFCD0BFF35F8F9E
:1023F0000123190081401E4D1F006963AA461D4D2F
:1024000029601D4D2E78AC463500C5402F402B422B
:1024100009D1BFF35F8F276088F31088E0BCBA460C
:10242000B146A846F0BD5346144D5F6A83005D591E
:10243000AF420ED3124A8E439B5862461670BFF3CA
:102440005F8F0022226088F31088002BE6D0984727
:10245000E4E70C4B92009C46624413681360BFF3A0
:102460005F8F0023236088F31088D7E7280100D00E
:10247000004005403C700540F65F0220CC0700207C
:10248000F4050020D03F054010B50100024A034882
:10249000FFF72EFA10BDC046346D0010F25F022027
:1024A000034B596A0A00986A596A8A42FAD17047FE
:1024B0000040054070B504000D00124A536A19002F
:1024C000966A536A8B42FAD13000190024184D41A4
:1024D000AB4211D80ED02B000A494A6A9A42FCD36B
:1024E00007D1084A02E0516A994202D1916AA14299
:1024F000F9D370BDA642EED9012301246442E51749
:102500005B42E9E700400540064A536A9942FCD81D
:1025100007D1044B02E05A6A914202D19A6A824280
:10252000F9D370470040054070B504000D00EFF38B
:10253000108672B61A4A1368002BFCD0BFF35F8F67
:10254000002D1BD02000FFF72DFA164981420AD03A
:102550002000FFF72FFA01212000FFF705FA0123E1
:10256000A340114A1360114BA400E550BFF35F8FE5
:1025700000220B4B1A6086F3108870BD0B4BA20033
:10258000D5500122A2400A4920000B7893430B70DA
:102590000449FFF739FA00212000FFF7E5F9E5E7E4
:1025A000280100D0CD23001038600540F40500203C
:1025B000F65F0220F0B54F46D6464646C0B5070046
:1025C0002C4C616A0D00A66A616AA942FAD18B425D
:1025D00008D805D00120E0BCBA46B146A846F0BDF7
:1025E000B242F7D9EFF3108A72B623480168002986
:1025F000FCD0BFF35F8F0125BD4020491D4C8846AC
:10260000097889462943C9B28C464146604608701C
:10261000391D1B48890065630A51B9000B50216AB6
:102620000020294219D0616A0800A66A616A8142C5
:10263000FAD18B4219D801D1B24216D8CC4516D066
:102640000C4B1F201D625D6301230740BB400D4AF8
:102650001E38136043464A461A70BFF35F8F00224C
:10266000054B1A608AF31088B5E70020F5E70120D2
:10267000F3E7C04600400540280100D0F65F022085
:10268000CC07002080E200E0EFF3108C72B60A491C
:102690000B68002BFCD0BFF35F8F01238340074AF8
:1026A0000748136202789A430270BFF35F8F0023DA
:1026B0000B608CF310887047280100D00040054063
:1026C000F65F022070B5050014001600002915D031
:1026D0000C00002A12D080686B689847296800288F
:1026E0000ED073009B196200033B1219CB18033AFA
:1026F0009C7088188A5C002A15D10670200070BD75
:1027000063001B197200033B9219CB18033A9E70A9
:1027100088188A5C002A02D104703400EEE75A70EF
:1027200004703400EAE75A700670E7E730B583605A
:102730000023CCB243730133047342608373C473C8
:102740000D000068012C06D9421C0133DBB2137066
:1027500003329C42F9D1FF2129404B005918002334
:1027600040180338437030BDF8B5CE4647460600E2
:102770000C0080B5002907D04D0003686D18033D9B
:102780005A195778002F04D12000C0BCB946B04672
:10279000F8BD7900C91903398846434459788946F8
:1027A00000215970517073683A0021008068984781
:1027B0003368002814D042469A18947059195B5D0A
:1027C000002B00D053700F70270049463000FFF7F0
:1027D000CBFF390002003000FFF774FF0400D3E79D
:1027E000424641465D19AF709A185B5C002B00D0E1
:1027F0006B701470E9E7C046F0B557464546DE46B3
:102800004E46E0B50D006B0001685B19DF1E040049
:10281000C85D83B00192CA19002850D043001B182C
:10282000033BCB185E78B446002E1AD1019E002ED1
:1028300042D0E67B002E04D073009B19CB18033BDB
:102840005D70A37B002B00D1A573E57300282FD109
:102850000023537003B0F0BCBB46B246A946A04665
:10286000F0BD72006244033A89184A78904600220B
:102870004A7091465A70010032002000FFF722FF93
:1028800043468246002B07D05B0021684344033B4C
:10289000CB185A78002A16D1424651462000FFF73D
:1028A00011FF2168019BCA19002BC2D10028CFD08B
:1028B00043001B18033BCB1800219970C8E7019B0C
:1028C000002BB6D1C4E750008018033809184878A7
:1028D000834648464870587041462000FFF7F2FE94
:1028E000594680462000FFF73FFF41460200200086
:1028F000FFF7E8FE8046CFE7F0B557464546DE468F
:102900004E46E0B583B00191457B04006B00006842
:102910005B19DF1EC15DC219002952D04B005B1844
:10292000033BC3185E78B446002E1CD1019E002ED6
:1029300044D0E67B002E04D073009B19C318033BE0
:102940005D70A37B002B00D1A573E573002931D105
:10295000002328005370617303B0F0BCBB46B2463D
:10296000A946A046F0BD72006244033A801842783E
:1029700090460022427091465A7020003200FFF7C4
:10298000A1FE43468246002B07D05B0021684344EA
:10299000033BCB185A78002A17D1424651462000F3
:1029A000FFF790FE019B01002068C219002BC0D1E7
:1029B0000029CDD04B005B18033BC3180020987052
:1029C000C6E7019B002BB4D1C2E750008018033842
:1029D0000918487883464846487058704146200098
:1029E000FFF770FE594680462000FFF7BDFE4146C6
:1029F00002002000FFF766FE8046CEE770B50400B7
:102A000000292CD0437B8B422ED00568480040180B
:102A1000033828188278002A21D053009B18033BE2
:102A2000EA5CEE188A4202D11BE0002A08D053006B
:102A30009B18033BEB185A788A42F6D142785A70B9
:102A400000230122837043702000FFF7D5FE617BD5
:102A500002002000FFF736FE6073012000E0002036
:102A600070BD43783370EBE701221900FFF7C4FE15
:102A700060730120F4E7C046F8B5CE46474604002F
:102A800080B506200E0000F023FA051E51D0524BEF
:102A90005249E21853425A418023DB039C46920577
:102AA0004F4B62441A604F4B1A6010008B6898437A
:102AB000FBD1494B8021E3185A4253414A4A5B00FB
:102AC00049009952062000F003FA3100C00001F0DD
:102AD00069FEC30932D14022012190466162A3629E
:102AE000256BEB0736D427008026E36A00232C37BA
:102AF00076013E4333600620256300F0E9F9414644
:102B0000800001F04FFE236B05009846DB073BD4A5
:102B10006022E36A5A406E231340336043462363C6
:102B2000802310229B013B431A60304B2363032315
:102B3000A3642800C0BCB946B046F8BD2C4A9342F5
:102B40003FD900232B492C4A6162A362256B904632
:102B5000EB07C8D52200C02330329B011343234A20
:102B600006201A60666AA26AB601B61800F0B0F9CB
:102B7000224901F017FEB6020100300001F012FEFA
:102B80000021FFF797FCAEE72200C02330329B0103
:102B90001343164A06201A60636AA26A9B0199468B
:102BA000914400F095F94B4614499B02994601F077
:102BB000F9FD0100484601F0F5FD0021FFF77AFC20
:102BC000A6E77F229901884610400130400819008D
:102BD0008044030082E7C0460080FCBF00C0004084
:102BE00000E0004000F00040E0070020010300008A
:102BF000FEFF0000FFFF0000C0FF3F004E0E000080
:102C000030B50C2083B000F0B9F9FEF753FE002870
:102C10000ED0994B994A1A605A609A60DA601A612C
:102C20005A619A61DA611A62954A5A6203B030BDFC
:102C3000944CA06700F0AAF90122934B1A60636CD0
:102C4000012BFCD10322914B1A608E4A936B012B0E
:102C5000FCD1013301218E4A8E480093043300F0E9
:102C60003DF905238C4A009301218C4800F036F988
:102C70008B4B5A68FF2A02D8802252005A60802269
:102C80007D4C824B21691201854D1A60002907D0C5
:102C9000606901F087FD431C5800C0180338FDD25D
:102CA000E0217F4B02201A681140802252012A4302
:102CB00011601968484003210140116004219A689D
:102CC0001142FCD08022802192012A430901116027
:102CD000802252005A60734B2361734B5968FF295D
:102CE00000D85A600321684A6F4B116002399A6814
:102CF0001142FCD0E0201A681040802252011A4391
:102D000010601868484003210140022011606649A4
:102D10008A681042FCD08022920113438022120163
:102D20001A608022614B52004A606361604B5968AF
:102D3000FF2900D85A6080225E4BE16912015C4D88
:102D40001A60002907D0606901F02CFD431C58006F
:102D5000C0180338FDD2E02255490B681A40802381
:102D60005B012B431A60802380229B012B431201BD
:102D70001A608022414B52004A60E3614E4B596811
:102D8000FF2900D85A6080224C4B216A12014A4D1B
:102D90001A60002907D0606901F004FD431C580047
:102DA000C0180338FDD2E02243490B681A40802343
:102DB0005B012B431A60802380229B012B4312016D
:102DC0001A60802380225B004B602C4BD20223626E
:102DD0003B4B5968914200D25A608022394B616A5C
:102DE0001201374D1A60002907D0606901F0DAFC42
:102DF000431C5800C0180338FDD2E02230490B684C
:102E00001A4080235B012B431A60802380229B01A0
:102E10002B4312011A608023DB024B60184B636264
:102E2000294B5A68FF2A02D8802252005A60802219
:102E3000264BA1691201244D1A60002907D0606950
:102E400001F0B0FC431C5800C0180338FDD2E0224A
:102E50001D490B681A4080235B012B431A608023B5
:102E600080229B012B4312011A6080235B004B6080
:102E70000E4BA361DAE6C04610060020006CDC02AF
:102E80001BB70000008000403CB0004030B0004064
:102E9000002F685900800240008C864700C0024025
:102EA00030800040001BB7003C8000404059730751
:102EB0005480004054B000406080004060B000404A
:102EC0006C8000406CB000404880004048B000403A
:102ED000014B8000C058704710060020F8B5040070
:102EE00021481D0017000E0001F05CFC01003800B5
:102EF00001F058FC069B29041B0319432368002B8F
:102F000020DB1A4B1A4DE21853425A4180235B01D1
:102F10009C461203174B62441A60174B1A60170045
:102F2000AB689F43FBD1C022231D92011A4321238A
:102F30002660A06013602368002BFCDA0823E160A0
:102F40001360F8BD3F2322681340B342D9D1A36870
:102F50001B051B0D8342D4D1EE22E368D20213403D
:102F60008B42CED1EDE7C046001BB7000040FDBF4D
:102F700000C0004000E0004000F000408023024A12
:102F80009B000343D362704700800540AA23064A92
:102F90001B0113602F230549D360054B196053684B
:102FA000002BFCDA7047C0460040024000B0FA0037
:102FB000006002402C4B2D4A70B51A602C4A2D4BF4
:102FC0002D491A6014008B689C43FBD12B4D2C4E6D
:102FD000B54208D2013E761BB60808CD98472300BB
:102FE0000134B342F9D1FFF70BFE264A214B1A6098
:102FF000214A9368DB43DB01DD09002BF9D1402234
:10300000214B224C224E9A675A671A67DA66B442FD
:1030100008D223682000002B20D00834FEF74EFE93
:10302000B442F6D31B4E1C4CC022A168300002F003
:10303000A3FEA660FEF77EFCFEF718FEFEF7DCFF9F
:10304000164C174EB44208D2013E361BB60808CCC7
:1030500098472B0001359E42F9D170BD0834FEF728
:103060001FFEB442D5D3DDE700E00040BFCDFBFE3C
:10307000FE7F3C0000F0004000C00040A80200209D
:10308000B8020020FFFFFF0100F00140980200207D
:10309000A80200200000002000ED00E0B80200209F
:1030A000C002002000BEFDE710B5FFF7FBFFC046E1
:1030B0000FB400B5084883B002F0C2FF049B002B98
:1030C00007D005A91800019101F0F2FA034802F0B7
:1030D000B7FF0120FFF7E6FF586D0010A46700104E
:1030E00010B50148FFF7E4FF686D00109A4200D266
:1030F000885470477047C046F8B557464E46454617
:10310000DE46E0B599460A9B07009A460D9B884625
:10311000934615000B9E9B0710D10C9B9E420DD22F
:103120009D1B14000E005D4422004B46013431000B
:103130002020B847A542F7D1B0460B9E002E27D0DD
:10314000444675195346AA1B013E985D21004B4623
:10315000B847002EF6D123002C0098460D9B9B0704
:103160000FD55B46E51A0C9BAB420AD946469846FA
:1031700022004B46310020200135B8470134A845D4
:10318000F6D82000F0BCBB46B246A946A046F8BD22
:103190002C00E3E7F0B54F464646D646C0B584B0AE
:1031A00098460EAB1B78129F994694460D9C109B37
:1031B000119EBA0725D4002E4BD19C4200D3BFE00C
:1031C00001223A4092461F2C00D9B8E00C9A551EB5
:1031D000302201E0202C03D001342A55A342F9D833
:1031E0005246002A0DD0A6420BD9202C44D00C9A6E
:1031F000551E302201E0202C3ED001342A55B44225
:10320000F9D1FA064DD57A053FD4002C39D10F9B60
:10321000102B00D179E00F9B022B00D18AE03023E4
:103220000C9A012413704B46002B3FD02D230C9A8F
:10323000135501340C9B6246009303974346029654
:103240000194FFF759FF04B0E0BCBA46B146A84666
:10325000F0BD012215003D40AA463A422FD04A4611
:10326000002A02D10C323A4200D0013E9C42BAD22E
:103270001F2CABD9202E27D92024FA06DAD57A05BF
:1032800003D4A3422DD0A6422BD00F9B102B32D0BB
:10329000022B20D0202CCDD030220C9B1B191A7071
:1032A0000134202CC6D04B46002BBFD17B070DD458
:1032B0003B07BFD520230C9A13550134BAE79C4233
:1032C0009FD21F2C00D881E720249AE72B230C9A49
:1032D00013550134AEE7202CACD00C9B1B190134E4
:1032E0003AE0631E012C92D00F9A102A2AD0022AAB
:1032F0002FD01C00D0E7BB060ED4202C9AD00C9BFC
:103300001A19013478231370C4E7BB060DD478234F
:103310000C9A01241370BFE7202C00D18AE75822B1
:103320000C9B1B191A700134B4E758230C9A012422
:103330001370B1E70C9A603301241370ACE72024BA
:1033400000265EE7023CBA06E9D40C9A12191C006A
:10335000D8E70C9A9246534462221A709AE7C04604
:1033600010B5002800D110BD02F01EFEFBE7C046DC
:103370000B0010B5002802D049681B68984710BDA3
:10338000F0B5DE4657464E464546E0B59BB09B46F7
:10339000249B89469846259B0B900C9240464246BA
:1033A00019009A4601F0D3FC002800D0D8E0012291
:1033B00040465146774B524201F0C4FC002800D0F1
:1033C000CEE0012240465146734B524201F0A4FC2C
:1033D000002800D0C4E0002200234046514601F0FE
:1033E0009BFC002800D0B9E1424653460A9209935B
:1033F0008023289ADB001A400E92289A1A4201D1A3
:10340000062326930A9A099B1600134300D0C7E0AF
:10341000289B002500261B0500D49BE100230D936B
:10342000269A0D9B9A4200DC9FE1D01A431E2693F8
:103430008023289ADB001A430023002728920D934B
:10344000279B0024BB4200D9DC1B0223289A1A4088
:103450000E92289A134203D07B427B415B421C4070
:103460000D9B002B07D00A9809992A00330001F020
:10347000F2FB0A900991002200234046514601F0D8
:103480004BFC002805D08020000684460999614441
:103490000991289A414B0B9D13400493269B0A9A4D
:1034A0000293099B03940092019349465B462800CE
:1034B0000C9A00F08BF90400002F62D0289B2200A8
:1034C00098061F23C0179843631C984649465B46DD
:1034D0006530A8470D9B0025DA179C18DB0F9A462C
:1034E0005440013F01E0202D13D00AAA94461F2327
:1034F000200063440A2101355E1901F053F930318F
:10350000317020000A2101F04DF926000400092E37
:10351000E9D805230693002304930A330393534603
:1035200005970B9F029312AB009342465B464946B8
:1035300038000195FFF72EFE0E9B0400002B20D0D3
:103540000C9BC51A279BAB421BD91E0022005B4671
:10355000494620200135B8470134AE42F6D810E084
:10356000289B42460493279B49460393269B0B982E
:1035700002935346009201935B460C9A00F026F9A1
:10358000040020001BB0F0BCBB46B246A946A046D2
:10359000F0BDC046FFFFEF7FFFFFEFFFFFF7FFFF2C
:1035A000734B099F9C467800400D604401F0E2FB9C
:1035B000704A714B01F06DFB704A714B01F042FB98
:1035C0003B03704A1B0B1A4304000D00300011002E
:1035D0006D4B002201F02DFB6C4A6D4B01F059FB45
:1035E00002000B002000290001F02CFB01F0DAFBA7
:1035F0000D9001F0BFFB674A674B04000D0001F01E
:1036000048FB0022654B01F01DFB01F0CBFB644A37
:103610000600644B2000290001F03BFB0400300051
:103620000D000F9601F0A6FB5F4A604B01F031FBE5
:1036300002000B002000290001F0FBFA02000B0041
:1036400006000F0001F025FB320004000D003B00D6
:103650003000390001F0F6FA002210901191544B1D
:103660002000290001F0F7FA0022524B01F0EAFA9B
:1036700002000B002000290001F0EDFA00224E4B61
:1036800001F0E0FA02000B002000290001F0E3FA4B
:103690000D008021040032003B000020C90501F02C
:1036A000C8FA02000B002000290001F0CBFA02004A
:1036B0000B001098119901F0CEFA0022314B01F065
:1036C000C1FA3E4B0F9C9C4664440022230501F046
:1036D000E0FA05000E0002000B000A98099901F0BB
:1036E0001BFB00280AD00D9B2800013B31000D93E5
:1036F0000022304B01F0AFFA05000E00C6270D99ED
:103700002B0063318F42BF4128997F42043709055E
:1037100000D495E6334300D182E6099C284A210073
:10372000284B0A9801F006FB002808D0002221004F
:10373000254B0A9801F0F0FA002800D070E6269B8D
:10374000002B00D17CE60E9B5A1E9341269AD31A79
:10375000269375E6002304270D9371E643460A93EA
:1037600080231B065344099342E6002326935FE619
:1037700001FCFFFFFB799F501344D33FB3C8608B1C
:10378000288AC63F0000F03F0000F83F61436F63A6
:10379000A787D23F71A379094F930A400000E03F09
:1037A0001655B5BBB16B0240EF39FAFE422EE63F2B
:1037B00000002C400000244000001840FF030000DF
:1037C0002D431CEBE2361A3F80842E41F0B54E4665
:1037D000DE4657464546E0B597B09946209E219F64
:1037E000229B8346984607910C923B0032003000A2
:1037F000390001F0ACFA002800D0A9E10122300024
:103800003900CA4B524201F087FA002800D0E1E0AB
:10381000012230003900C64B524201F093FA0028D1
:1038200000D0B7E0002230003900C24B01F08AFA24
:10383000002800D099E0002230003900BE4B01F092
:103840006BFA002800D090E00022002330003900FD
:1038500001F062FA002800D0B1E000230D93249B10
:103860005B0501D40623984608AB9C46172200242A
:1038700030234146624404E0013413550139202CC1
:1038800001D00929F8D888463000390001F08AFAB9
:103890004346DA00A94B05009B181A685B6808923A
:1038A000099301F067FA02000B003000390001F0C3
:1038B000C0F9089A099B01F0ECF90A900B9101F00C
:1038C00095FA824601F052FA02000B000A980B9911
:1038D00001F0AFF900229A4B0A900B9101F032FAF5
:1038E000002800D1C0E001239C46E244504601F08C
:1038F0003DFA02000B000898099901F013FA00281C
:1039000002D000239A4601354346002B6AD008AB0B
:1039100017269C4608956644554614E001235B42F1
:1039200043440A2128009A4600F03CFF013430311C
:103930003719397028000A2100F034FF092D00D80A
:10394000D0E0D0460500202CE8D10EAB98460323EA
:10395000249A1340012B00D196E02023249A01934E
:103960000392239A434602921EE0249B58460493F6
:10397000239B00960197039343460C9A0293079961
:103980004B46FFF7FDFC17B0F0BCBB46B246A9465C
:10399000A046F0BD249B5B070ED40322694B2499FB
:1039A0000192039123990291009358464B460C9A39
:1039B0000799FFF7A1FBE6E70422634BEFE73B0023
:1039C00032000020002101F034F9012306000F002D
:1039D0000D9344E7249B0393239B029304230193B9
:1039E0005A4BE1E7280001F0C5F902000B00300056
:1039F000390001F01EF9524B002206000F0001F0C1
:103A00008BF90EAB984600280AD10022300039000D
:103A10004B4B01F097F9002802D1EB0700D5013597
:103A2000202C94D008AA94461723280063440A2126
:103A300001341E1900F08EFE3031280031700A2149
:103A400000F088FE051EEBD10323249A1340012BBE
:103A50001BD0202C00D180E70D9B002B35D02D22D0
:103A60004146631C0A5579E700220A980B99344BAA
:103A700001F052F9002800D046E75346002B51D1FF
:103A800001239C46E2443FE72024239B002BE0D007
:103A90000D9B002B03D1249A0C33134202D0239B9D
:103AA000013B2393239BA342D3D908AB9C46172207
:103AB00030236244202C00D14FE723990134135561
:103AC0008C42C6D0202CF8D147E7249B5B0724D436
:103AD000249A2300120700D440E7202241460133F4
:103AE0000A553BE75746089D202C00D12DE72200C0
:103AF00030214046002F09D00132B154202A00D194
:103B000023E7D3431B191B18002BF5D10EAB9846A6
:103B10002E234146541C8B5482E72B224146631CC2
:103B20000A551BE7DB0700D4EEE6A9E7FFFFEFFF2E
:103B3000FFFFEF7F65CDCD4165CDCDC1706F00102A
:103B40000000E03F746D0010786D0010846D00106F
:103B5000249B0393239B029303230193004B23E7AE
:103B6000806D0010F0B5DE464E4657464546E0B53E
:103B70009FB01C00289B91460993C94AC94B8B46AC
:103B800008901A60002900D118E2002320789A4694
:103B9000002800D11AE226001D005C460AE02A0037
:103BA0006F1C4B46089D2100A8473D000136307828
:103BB000002870D02528F2D110239B46083B9A4656
:103BC000043B9846023B00219C46721C107816006C
:103BD0000300203BDBB2102B03D8B34F9B00FB58F4
:103BE0009F460300303B092B32D900230A932A2831
:103BF00068D0002398462E283ED00300683BDBB2F5
:103C0000122B1CD8A94A9B00D3589F46012301328E
:103C10001943DBE7634601321943D7E743460132D4
:103C20001943D3E75B4601321943CFE753460132CC
:103C30001943CBE780235B007078194301360300FA
:103C4000253BDBB2532BAAD8994A9B00D3589F46F9
:103C500000270300B800C01901364000C0183378AF
:103C600030381A00303A0700092AF3D90A901800B0
:103C7000002398462E28C0D180237078DB0019439A
:103C80000300303B721C092B00D8A1E12A2800D187
:103C9000B2E11600B1E7A346AA462C00D14503D8ED
:103CA00001235B424B449A464B46524659460020FC
:103CB000089DA84720001FB0F0BCBB46B246A946ED
:103CC000A046F0BD099B40CB0A96002E03DB50783E
:103CD0000993561C8DE72838014370420A900993D6
:103CE0005078561C85E7782800D1DFE1582800D1AC
:103CF0004CE26F2800D14FE3622801D100F030FC84
:103D000010230A009A430B92692801D000F0A9FC05
:103D10000A230C934B0500D5D0E10B9A80231100A8
:103D20009B0019408B461A4200D0A1E2802311006B
:103D30005B0019408A461A4200D0B6E313005B06C6
:103D400000D5EDE2130009991B0601D400F076FCC2
:103D500008C91BB2D8171A18424092B2099193466B
:103D6000DA0F1292002B09D1802310220B99DB006D
:103D70000B4091430B91002B00D0E4E20B9A61239E
:103D8000920600D541230EA91F228C46DBB2624465
:103D90000A3B5F461395A34655460C9CB2460D93CD
:103DA00016000AE03033DBB201357355A74200D26A
:103DB000EDE2202D00D1EAE207002100380000F0FA
:103DC000F1FCCBB20929EDD90D9A94466344DBB2DC
:103DD000EAE780239B007078194301362FE770785B
:103DE000682800D1CDE180230136194327E7707898
:103DF0006C2800D1BFE180235B00194301361EE728
:103E0000462800D19BE10722099B04910733934385
:103E10000A9A19000392424602920CC9089800922D
:103E2000019309912A004B462100FFF7CFFC013690
:103E30000500BCE62A006F1C4B46089D210025208A
:103E4000A84701363D00B2E68B0700D4ADE1099BDF
:103E50002A009A466B1C9846534601CB21009A468D
:103E6000089F4B46C0B2B8470A9B9C466544012B4D
:103E700000D886E2089B4746B04626004C46994645
:103E80003A002300013731002020C847AF42F7D164
:103E9000A1465346340046460993013687E6C0469C
:103EA000653B0010980600208C6D0010D06D00104E
:103EB0001C6E0010099B04CB9B4643460992002BC5
:103EC00000D1C6E013789C46002B00D1BDE34346E9
:103ED000013B099A0133D0180A9F130001E0834285
:103EE00003D05A780133002AF9D1099A0A979B1A0C
:103EF0000B9380230A00DB001A400C92194204D075
:103F00000B9B434501D943460B9302231A000A40F9
:103F10000D920B4200D187E16046002800D168E194
:103F20000C9B002B00D10DE1A844C246099B5746CB
:103F30005B1B9846089BB2462A0026004C469946D1
:103F400009E023003100551CC8474346585D00284E
:103F500000D126E12A009742F3D1A1463D0034006A
:103F600056460D9B002B00D043E15B46013609937A
:103F70001DE6099B1A0008CA9246002B48D0212250
:103F800011438B460EA884461F21614409950022E7
:103F90000F27A4460D0002E0202A0CD00B003C00A5
:103FA0001C4020003730092C00D807380132A854B3
:103FB00019090F2BF0D86446099D32E0DC4B2078BC
:103FC000089300239A46002800D0E4E5002465E623
:103FD000434606000A9F9800C0180132400080192D
:103FE0001678030030003038303B0928F3D9300010
:103FF000984616000A9700E6099B023604CB9046C5
:10400000D2434046D2171040804609933078F4E5F9
:1040100010220800904311321043834600224905C4
:10402000B0D55B46069308230593434604931023BB
:1040300003930023029316AB019200932A004B4690
:1040400021000898FFF7A6F85346050001360993AA
:10405000ADE513789C46002B00D1F7E202235B42CA
:1040600037E7202302009A43472A04D180231B010B
:10407000194302239843452801D1202319430722DD
:10408000099B0491073393430A9A1900039242460D
:1040900002920CC908980092019309912A004B469C
:1040A0002100FFF76DF90136050080E510230C9320
:1040B0000C230A009A430B924B0503D501230B9A5C
:1040C0009A430B92692800D127E6642800D124E6A0
:1040D0000B9A802311009B0019408B461A4200D096
:1040E00066E1802311005B0019408A461A4200D025
:1040F00039E213005B0600D53CE113001B0600D437
:10410000A6E2099B04CB1204120C934609935B466A
:10411000002B00D09AE10B9A1033110099430B91B8
:10412000520500D492E100239A460B9B06930A9B0A
:104130000593434604930C9B039300230CE1202337
:10414000194360E6099B0A9A5B1B98464B469146C9
:104150001F00B2462600089C2A003B003100A04701
:1041600043460135585D0028F6D14A463400B94629
:1041700056460A92F5E6C0239B00B07819430236F2
:104180005DE5C023B0781943023658E50C230A00D8
:104190009A4314331A43103B0B920C934B058DD466
:1041A00096E7A14634005646DBE60A9A012A00D873
:1041B00053E26B1E9F18089BB04626004C4699465A
:1041C0002A002300013531002020C847BD42F7D125
:1041D000A14634004646099B3A0001CB210098468F
:1041E0007D1C4B46089FC0B2B84743460136099331
:1041F000DDE40B9B0A9AA8469A4200D8B5E694469D
:104200006544ED1A089B4746B04626004C46994641
:104210003A002300013731002020C847AF42F7D1D0
:10422000A14634004646A0E60B9A0A99531C9142D7
:1042300000D814E24B199B1A1F00089BB2462600B7
:104240004C4699462A002300013531002020C847FA
:10425000BD42F7D10A9BA14601330B93099B340061
:104260001B7856469C466046002800D058E67CE6FF
:104270000722099B07339343013294469C446246CC
:104280005F6809921A68FB1710931193109811999F
:10429000030053400E930B007B400F9394460E9AFD
:1042A0000F9B121A8B410E920F93FB0F62461293D3
:1042B00000233A439B463DD00B9A6123920600D5DA
:1042C00041230022DBB20EA90A3B8C4692460D9395
:1042D00043461F3262441395159655460E9E0F9F16
:1042E000A24690460C9C14930CE03032D2B2434666
:1042F00001355A55BB4500D18AE1202D00D18AE114
:1043000006000F00220000233000390000F088FA78
:10431000D2B2092AE9D90D9B9C466244D2B2E6E7A3
:10432000FF23099904C913401A00099117E5C046F3
:10433000F53000100B9A1033110099430B91520580
:10434000BAD500239A460B9B06930A9B05934346D6
:1043500004930C9B0393129B02935346019316AB59
:104360002A00009321004B460898FEF713FF013600
:1043700005001CE4FF22099B02CB11408B460993E8
:10438000C5E65346454609930136FFF710FC5646ED
:104390005C46AA46139DD6E708230C930B910B9914
:1043A000642800D084E60B9B5B0500D586E6B4E468
:1043B0000722099B07339343013294469C4462468B
:1043C00009921A685B6810009B4613005A46134313
:1043D00007D10B9A1033110099430B91520500D568
:1043E000A1E60B9A6123920600D541230022DBB29D
:1043F0000EA90A3B8C4692460D9343461F326244F7
:104400005F461295A34655460400B24690460C9E60
:1044100013930DE03032D2B2434601355A55002392
:10442000BB4200D100E1202D00D100E104000F00CB
:10443000320000232000390000F0F2F9D2B2092A3C
:10444000E8D90D9B9C466244D2B2E5E70B9A612302
:10445000920600D54123DBB20EA90A3B1F228C46EF
:104460000D93230062445C461295170055469B4607
:10447000B2460C9E08E03033DBB201357B55B442C6
:104480000ED3202D0CD004003100200000F08AF95A
:10449000CBB20929EFD90D9A94466344DBB2ECE71D
:1044A00056465C46AA46129D3FE6099B1A0008CA7A
:1044B000D91713925A184A409246DA0F1292002BDB
:1044C00008D1802310220B99DB000B4091430B9104
:1044D000002B2BD10B9A6123920600D541230EAA03
:1044E0001F279446DBB20A3B0D9567445D4609934E
:1044F000A3465446B2460C9E08E03033DBB2013589
:104500007B55B4420ED3202D0CD004003100200086
:1045100000F048F9CBB20929EFD9099A94466344CF
:10452000DBB2ECE756465C46AB460D9D0B9B2A0082
:1045300006930A9B21000593434604930C9B08981D
:104540000393129B013602935B46019316AB0093D3
:104550004B46FEF71FFE139B05000993FFF727FB51
:1045600002230C931AE7099B04CB92461293002A6C
:1045700008D1802310220B99DB000B4091430B9153
:10458000002B2BD10B9A6123920600D541230EAA52
:104590001F279446DBB20A3B0D9567445D4609939D
:1045A000A3465446B2460C9E08E03033DBB20135D8
:1045B0007B55B4420ED3202D0CD0040031002000D6
:1045C00000F0F0F8CBB20929EFD9099A9446634478
:1045D000DBB2ECE756465C46AB460D9D0B9B2A00D2
:1045E00006930A9B21000593434604930C9B08986D
:1045F0000393002302935B46019316AB00934B4653
:10460000FEF7C8FD129B050009930136FFF7CFFAAC
:10461000B44200D871E6149B54460E960F97AA46F2
:104620009846159E139D8EE6A64200D8FBE6139B86
:1046300056469846AA465C46129D76E508C9D817A4
:104640001A1842400991FFF78AFB00230B9350E4AC
:10465000099B04CB9346099359E52F00BBE50B93C7
:1046600001E6063B0C939AE60EB4012210B585B024
:1046700007AC08CC01000094524204480394FFF7B1
:1046800071FA05B010BC08BC03B01847ED3000103B
:1046900000B585B0039101210290009303481300F7
:1046A0004A4202A9FFF75EFA05B000BD713300105F
:1046B00010B5094A0300146884B0002C08D0012208
:1046C00000910648524203A9A047012004B010BD42
:1046D00001F0B6FC0020F9E79806002061330010D5
:1046E00001480421014B18476002002011470010C7
:1046F000142310B50100188804331B88984710BD97
:10470000162310B50100188802331B88984710BD86
:10471000F8B54746CE4680B50F1E19D014239946EA
:10472000043304000025012698464B46188843466A
:1047300021681B88984701C4431E984101354042B7
:104740000640AF42F1D13000C0BCB946B046F8BD1A
:104750000126F8E7124A936F9B0815D29066D1663E
:10476000002905D0FFE7FFE7FFE7516F106F7047A3
:1047700004B580210906C2175140002800D0C84363
:1047800001F0EEFF002104BDF0B5146E556E576FB9
:10479000166FFFF7E3FF1466556657671667F0BD9F
:1047A000000000D0114A936F9B0813D21066516627
:1047B000002905D0FFE7FFE7FFE7516F106F704753
:1047C00004B5002801D00020C04301F0C9FF00213A
:1047D00004BDC046F0B5146E556E576F166FFFF7E7
:1047E000E5FF1466556657671667F0BD000000D0F8
:1047F00094464A4A926F9208624601D228E0C04627
:10480000F0B5464E346E756E776F366F00F020F857
:104810009446424A14665566576716676246F0BD6D
:1048200094463E4A926F9208624601D254E0C046D6
:10483000F0B53A4E346E756E776F366F00F04CF807
:104840009446364A14665566576716676246F0BD49
:10485000002B24DB11D000293EDA00B5C9434042C9
:1048600000D1013100F038F8C943404200D1013194
:10487000DB43524200D1013300BD002AEBD10028B6
:1048800001D1002905D00020C90FC90701D1C043BB
:10489000410800B501F05CFF0022002300BD00B517
:1048A00000290ADBDB43524200D1013300F014F847
:1048B000C943404200D1013100BDC943404200D14B
:1048C0000131DB43524200D1013300F005F8DB43F4
:1048D000524200D1013300BD002923D1002B18D151
:1048E000002A0CD0BC460D4F38667A6600210023A2
:1048F000FFE7FFE7FFE77A6F386F674670470028EA
:1049000001D00748010000B501F022FF002200237A
:1049100000BD02000B00002000217047000000D005
:10492000FFFFFFFF002B00D0BFE0130C28D1002AAF
:10493000E7D080B4114F39667A66FFE7FFE730B4FD
:10494000040C7B6F396F1B0423433B667A66FFE7D9
:10495000FFE7FFE7C04684B27B6F3D6F1B04234334
:104960003B667A66FFE7FFE7C04600232C042D0C68
:104970007A6F386F00196941B0BC7047000000D0F1
:10498000F0B594460025140E01D112020835140F1B
:1049900001D112010435940F01D192000235D40FD8
:1049A00001D152000135D40B0134254F7C66254CD2
:1049B0003C660E0C93B2FFE7FFE7FFE73C6F6643F0
:1049C000360C7703BE467343DF0B5B04C01AB94154
:1049D000130C7343DB18C91ACE086643360CB64471
:1049E00093B273431F0F1B01C01AB941130C7343D9
:1049F0001F0B1B05C01AB941860D8F023E4366434B
:104A0000360C092D24DB520A7243801A7703460ABA
:104A10006643360C16235B1BDE40DF40BF1964463D
:104A20006643821B7046043506330100D940A84016
:104A3000C01900D30131A24206D20023F0BD00000C
:104A4000000000D0FFFFFFFF121B0130F3D3F1E79E
:104A500009277F1BFE406446A2B27243801A00D22F
:104A60000139220C7243130C1204821A99410B0073
:104A70007046043513370100F940A840801900D36F
:104A80000131002B02D1A2420AD2F0BD013000D385
:104A90000131121BFAD2013BF8D1A24200D2F0BD83
:104AA000013000D30131121BF7E7F0B51C0C00D028
:104AB00080E00CB400251C0A04D11B02160E3343FF
:104AC000120208351C0B04D11B01160F33431201CF
:104AD00004359C0B04D19B00960F334392000235A2
:104AE000DC0B02D192185B4101351C009718644120
:104AF0000134464F7C66464C3C660E0CFFE7FFE7F0
:104B0000FFE7C0463C6F6643360C7703BE4697B25C
:104B10007743C01B00D20139C01B00D201399FB2BC
:104B20007743C91BC91B170C77437E04FF0B801BFF
:104B3000B941CE086643360C0C2D33DBB644120B5C
:104B40001F053A431B0B97B27743C01B00D20139B4
:104B50009FB27743C91B170C77433E043F0C801B61
:104B6000B941860D8F023E43664329277F1BFE40D5
:104B70000C3D7746AF40BF1930BCA2B2ABB2724316
:104B80007343801A9941220C7243130C1204801A49
:104B9000994102000B000137001BA941F9D2781E90
:104BA0000021F0BD0C277F1BFE4077467F0BAF40F6
:104BB000FF19E0E700245D1C07D0144F7D663966BD
:104BC000FFE7FFE7FFE7FFE73C6F95B29EB2654363
:104BD0006643401BB141150C1E0C65436643360409
:104BE0002F0C3E432D04401BB141994204D20200D8
:104BF0000B0020000021F0BD01D19042F7D3801AB4
:104C0000994101349942F2D3F6E70000000000D048
:104C1000FFFFFFFF44464D4656465F46F0B47047DF
:104C2000F0BCA046A946B246BB467047484041404A
:104C3000484018B41B4B5B68FC46019308BD04DF79
:104C40001752001018B4174B1B68FC46019308BD9F
:104C500000DF215200109446134A926F920809D245
:104C6000624618B40F4BDB68FC46019308BD0CDFAD
:104C7000D95400100C4AF0B5146E556E576F166F6C
:104C80006246FFF7EEFF084A1466556657671667D7
:104C9000F0BD18B4034B9B68FC46019308BD08DFC8
:104CA0007D530010D0030020000000D0FFB550401D
:104CB0004240504059404B40594000E0FFB5154F2D
:104CC0004C00640D03D0BC4204D10C0314D8002066
:104CD000090D09055C00640D03D0BC4204D11C031E
:104CE0000AD800221B0D1B0501264B4009D44B405E
:104CF00003D58B4200D18242FFBD9942FCD1904244
:104D0000FFBD0B43DB1803431343F5D0C9434918D8
:104D1000FFBD0000FF07000000B5FFF7CFFF804197
:104D200000BDC04600B5FFF7C9FF01D9002000BD96
:104D3000012000BD00B5FFF7B9FF01D9002000BD7B
:104D4000012000BD00B5FFF7B1FF804100BD01208B
:104D500040054A00121804D85A00121801D8002041
:104D60007047012070470020704700000021002894
:104D700005D17047C1174840401AFAD0C90713B58A
:104D8000064B1B6898470CBC441CA2401005120B34
:104D90000349091B09051943114310BDC007002031
:104DA0001F04000010B54C00620D8023D218DB00F8
:104DB000D21A5B057E2A10DD9E3A13DACC1709035E
:104DC000490819435242D140640001341532202A67
:104DD00005DAD0400843604310BD002010BD0846EE
:104DE000604310BDC80FC018013810BD18B4044B83
:104DF0005B6AFC46019308BD24DF0D5700100000DC
:104E0000D003002018B4044B1B6EFC46019308BD70
:104E100060DF1B5800100000D003002018B4044BC2
:104E2000DB6FFC46019308BD7CDFA5570010000036
:104E3000D0030020024A034B00B500F0CBF900BDBF
:104E4000182D4454FB2119408A0002D3920D092ADF
:104E500008DA18B4064BDB6BFC46019308BD3CDF57
:104E60004F59001000B5FFF7E5FF04BC9646F0E788
:104E7000D00300208A0002D3920D092A08DA18B460
:104E8000064B1B6CFC46019308BD40DF5F590010C8
:104E900000B5FFF7CFFF04BC9646F0E7D003002033
:104EA000132370B51D78012D15D010DD1C48FFF7B8
:104EB00027FC1C4C01008022200000F05DFF022D29
:104EC00006D01948FFF714FC184B186070BD154C3C
:104ED000174BA364F5E7164B124C23606360A36085
:104EE000E36023616361A361E36123626362A362A0
:104EF000E36223636363A363E36323646364A36480
:104F0000E36423656365A365E36523666366A3665F
:104F1000E36623676367A367E367A364D1E7C046DB
:104F200053440000D00300204C330000C007002091
:104F3000E5510010F0B557464E464546DE46E0B511
:104F400087B002925A009A46530D9946109B4D0025
:104F500004006D0D002B01D000221A609A4A954280
:104F60007DD04B46002B7AD0002D00D182E0270067
:104F70000E00914575D0013B0393AB4271DCCB0F22
:104F80000E039846330B9B4680235B039C465B468F
:104F9000624613431F005346060018036346000B86
:104FA0000343029A0193039B0092AB4200D1AAE013
:104FB0004346002B00D1B7E033003C0000275E429F
:104FC000A7414B46ED1A002D00DCC0E00120019BFB
:104FD00040421911FFF7E6FB002398464B46039326
:104FE0005346AB46029004931BE032009A401500F2
:104FF0003300524693401C004B464846D917009A4E
:10500000019B00F02DFE4346524693404B44984688
:105010005B4626002F009B1A361A8F419B46002BB9
:105020002BDD5B46DA460C2B01DD0C239A46029AF7
:10503000BB11534351461D22521A13412022013302
:105040005B10524299468B18CFD5202332005B1A51
:10505000DA4013003A008A4015001D43C8E70027D4
:105060005A4E3800310007B0F0BCBB46B246A946E4
:10507000A046F0BD00270026F3E7039B9946049B5A
:105080009A46009B019CBC4200DD83E000D17DE09C
:10509000009B019CF61AA741BC4200DD8BE000D1C9
:1050A00085E0009B019CF61AA74102239C46E04440
:1050B0003200009801993B0092197B418B421ADC27
:1050C00017D000998A425AD05346002B02DA434641
:1050D0005B429846109B002B01D042461A604B461B
:1050E0003B4A30003900D21AFFF78CFE07000E0051
:1050F000B7E78242E5D9009B019CF61AA74101233C
:105100009C46E044E0E7019B9F422FDD0098019917
:10511000434600184941002B3FD1039B361A8F416B
:10512000994601239846CFE74B46ED1A002D00DD46
:105130004CE7019BBB42BBDC009B019CBC4201D104
:10514000B342B5D8009B019CF61AA74133E0002377
:105150009846009B019CF6186741002F2FDAF6183D
:10516000674102235B429C46E044A1E7009A019B11
:105170009F4201D19642C9D827000E0071E7019ADB
:105180009342A1D14346DB079ED5B4E7009BB342CF
:1051900000D87DE7002FDCDB8AE7039B801BB94149
:1051A000994601235B4206000F0098468CE7009B5E
:1051B000B34200D875E701239C46E04478E7012319
:1051C0005B429C46E04473E7FF0700000000F07F6D
:1051D0003304000010B5002482B00094FFF7AAFE4B
:1051E00002B010BD07B5604601880A0A0230DF2A06
:1051F000FAD1C9B2820804D302884088000410435F
:1052000000E00068014A5050039007BDD003002021
:105210000FB403BC0CBCF0B50124E407634000E00C
:10522000F0B50C0DCF0F661E3605891B640503D340
:10523000C943404200D30131640D03D0661CF60A15
:1052400007D0E41B00207F00791C89078912803C6D
:1052500024031D0DDF0F6E1E36059B1B6D0503D34A
:10526000DB43524200D301336D0D03D06E1CF60AAE
:1052700007D0ED1B00227F007B1C9B079B12803D0B
:105280002D032F1B661B58D4A446202E46DA203748
:105290001400BC401D00BD40F24033412A43801839
:1052A0005941CB0F05D0C943C0430022644250414D
:1052B000514162464D0D28D10D0D07D100281FD058
:1052C000241940414941013A0D0DF9D0640006D33B
:1052D000013000D30131002C01D140084000013AD7
:1052E0000BD4941CE40A04D112051144DB071944C1
:1052F000F0BDD907204B194300E0D9070020F0BDCD
:105300000029DDD1002CDBD1F0BD0132C6074008F9
:10531000CD0728434908002EE1D0D9E73C2E29DAF1
:10532000203E40371400BC4000D00124F24014431A
:105330001A00BB401C43D317ACE7AC46202F08DA59
:1053400020360400B4400D00B540F84039412843F0
:10535000A5E73C2F0CDA203F40360400B44000D0D3
:105360000124F84004430800B1400C43C117EAE7A8
:1053700010001900002494E70000F07FF0B50C0D38
:10538000661E3605891BE60A6405640D02D0651C9D
:10539000ED0A04D0002001210905803C2403A44625
:1053A0001C0D671E3F05DB1BE70A6405640D02D078
:1053B000651CED0A04D0002201231B05803C240358
:1053C0007740644497B484B296B27443070C7E432A
:1053D000150C6F4380B26843361802D301200004D5
:1053E0003F183004350C00197D41844688B29AB2CA
:1053F00050430C0C62431F0C7C438EB27E439219C7
:1054000002D301263604A4191604170C3618674176
:1054100001BC81B29AB25143040C62431B0C5C4341
:1054200080B25843121802D301200004241810043B
:10543000130C401863412D185E410020474106BC03
:1054400088B293B258430C0C6343120C544389B294
:1054500051435B1802D301210904641819041A0C82
:10546000091862416D1856410020474118BCF902E5
:10547000720D1143F0026A0D1043ED020A0D03D1C3
:105480006D1940414941013B124E9B1B7600B342CE
:105490000ED26D0007D301300026714166463543B8
:1054A00001D1400840001B05C918E4072144F0BDA4
:1054B0000BDA013306D1013004D101314F0D01D097
:1054C0004908F2E7E1070020F0BD01363105002070
:1054D000EBE70000FF030000F0B51C0D671E3F0561
:1054E000DB1BE70A6405640D02D0661CF60A04D0D3
:1054F000002201231B05803C2403D0252D06002615
:10550000F6432E661E096E66CE0FF619B4464900A4
:105510004F0D02D07E1CF60A03D000200021403F30
:105520003F033E1BB600B444013F7F05C91B490839
:105530002E6F013676089C02950D25437543ED13B9
:105540007543AD1301356D10F603761B0CB4CC0218
:10555000450D2C43A2B2B3B25A43270C7B43350C02
:105560006F43A4B26C431B1902D3012424043F19D6
:105570001C041D0CA4187D4124196D41009A91B2A0
:10558000ACB26143170C7C432B0C5F4392B25A437D
:10559000A41802D301221204BF182204230C5218AB
:1055A0007B41019C6C431B19520ED9010A434401F3
:1055B000A01A81B2B2B2514303145A43360C73435A
:1055C00087B27743D617D21900277E4136049B193C
:1055D0001704160C7F185E417316ED18F3010026B0
:1055E00080337541A90F06D16400690AE8055B0A9A
:1055F000184309D22FE00422944480337541A90A4C
:10560000A8059B0A184326D3404149412404009A27
:10561000019B0D005543641B4343E41A95B286B2C7
:105620007543170C7E43030C5F4392B25A43B6187E
:1056300002D301221204BF183204330C52197B41E9
:1056400052429C41002C02D40022013051414008BA
:10565000CA071043490802B06246D7079210084BA8
:10566000D218084B9A4203D212058918C919F0BD05
:105670000020002A01DC3900F0BD01331905F5E7EF
:10568000FD030000FE070000624618CA94465A4611
:10569000002A20DB04E0624618CA944600291ADA80
:1056A000C01861415B463B415C46B4405246FA40FB
:1056B000224344464D4662416B41904699462B46F3
:1056C000B3403D41FC401C4352465B46A241AB41C6
:1056D00092469B467047C01AA1414B463B414C46FF
:1056E000B4404246FA40224354465D4662416B4113
:1056F00092469B462B46B3403D41FC401C434246EC
:105700004B46A241AB41904699467047002200B5F6
:10571000203200F010F8080000BD002200B500F0B3
:105720000CF8CA179A4200D100BDD8430121C9071D
:10573000414000BD00220B150AD410B5944600F07C
:10574000A7F81414013400DA0021CB17144C2047B9
:105750000020002170476244343A0CD40C2A07DA46
:1057600004009140904052422032D440214310BD69
:10577000D843D94310BD203207D40C46944052423E
:1057800020321141D040204310BD0800C9172032FB
:1057900003D452422032104110BD1800190010BD30
:1057A000575700104A00520D144BD21A13DDFF2A2E
:1057B0001EDAD205CB0FDB071A43C300400F0903E3
:1057C000490A084310435B0001D301D00130704700
:1057D0004308FBD2704702D0C80FC00770470A03C6
:1057E00012130132F8D1420F072AF5D1012200E04D
:1057F000FF22C80F00028018C00570478003000018
:1058000000210A00002104E000210A00C11704E081
:105810000022002306E0C0460022CB175840594022
:10582000C01A994130B5184CA21A002903D10100C1
:1058300010D00020203A4C1512D104D2013A0018A1
:1058400049414C0DFAD3114CA24204D212058918D9
:10585000DB07C91830BDD243520D00200021F5E707
:1058600003D4013A00184941FBD50B324405C00A64
:105870004D052843C90A640003D0002460416141FA
:10588000E1E7E0D34408F8E732040000FE07000037
:105890000A0DCC0F531E1B05C91A520503D3C94369
:1058A000404200D30131520D03D0531CDB0A07D014
:1058B000121B00206400611C89078912803A1203C0
:1058C000014BD21A70470000FF030000023225D4BA
:1058D0000C2A1CDA1125AD1A0B002B4108320735B2
:1058E0000600EE40904091403143F0CC63431A15DE
:1058F00000235A41554356435743BF02F4127605DD
:1059000076196741ED177F19801BB94170470C224A
:105910000020C917490001310905DBE70902030E20
:10592000194300025342203208D40C00194194401C
:10593000D840204300225041514170470800C91708
:10594000203B2032F1D50020002100227047F0B525
:10595000FFF760F900F00EF800F030F806E0F0B55F
:10596000FFF758F900F006F800F046F8FFF758F98D
:10597000F0BD000000B5FFF78BFF30A4FFF7A6FFD6
:1059800000242C4D2C4ED20702D3F6436D426641C3
:10599000520004D2A246A346A846B14603E0A04660
:1059A000A146AA46B3466EA4A44601271F26FFF7C8
:1059B00072FE0137013E212FF9D100BD594684B254
:1059C0008DB26C43061475430B145E4382B25A4386
:1059D000AD18EA1700D7D2431204B6182A042B0CCC
:1059E00012197341404649469D009B17920F2A4366
:1059F000904199413E2210E7494684B28DB26C43F2
:105A0000061475430B145E4382B25A43AD18EA176D
:105A100000D7D2431204B6182A042B0C1219734172
:105A2000504659469D009B17920F2A4350415941B9
:105A30003E22F2E6BB4DF09DC556F6367D51000084
:105A40001A61140085880A00FB211900F0B5FFF7E0
:105A5000E1F8404D0C002C4001D0AC4202D1090DC0
:105A6000090500201C002C4001D0AC4202D11B0DC6
:105A70001B0500220026ED02002B04D502266B40F8
:105A8000694000D476424F1904D599420CDD0136A5
:105A9000694003E0BB4207DA013E6B40070010009B
:105AA0003A000F0019003B0040B4002A0FD1002B30
:105AB0000AD05C006415013409D14C00641501342E
:105AC00002D10139013B02E0002000212EE0FFF766
:105AD00003FD3E22FFF722FE82468B460020002176
